:020000041000EA
:1000000000B5324B212058609868022188439860DF
:10001000D860186158612E4B002199600221596106
:100020000121F02299502B49196001219960352056
:1000300000F044F80222904214D00621196600F024
:1000400034F8196E01211966002018661A6600F04E
:100050002CF8196E196E196E052000F02FF8012189
:100060000842F9D1002199601B49196000215960AB
:100070001A491B48016001219960EB211966A021F2
:10008000196600F012F800219960164914480160C1
:100090000121996001BC002800D000471248134993
:1000A000086003C880F30888084703B5996A0420EC
:1000B0000142FBD001200142F8D103BD02B5186610
:1000C0001866FFF7F2FF186E186E02BD00000240BE
:1000D000000000180000070000035F00212200005C
:1000E000F4000018222000A00001001008ED00E03C
:1000F00000000000000000000000000074B24E7A12
:1001000000200420F7010010C3010010C5010010F9
:10011000C1010010C1010010C1010010C101001097
:10012000C1010010C1010010C1010010C701001081
:10013000C1010010C1010010C9010010CB01001065
:10014000CD010010CD010010CD010010CD01001037
:10015000CD010010CD010010CD010010CD01001027
:10016000CD010010CD010010CD010010CD01001017
:10017000CD010010CD010010CD010010CD01001007
:10018000CD010010CD010010CD010010CD010010F7
:10019000CD010010CD010010CD010010CD010010E7
:1001A000CD010010CD010010CD010010CD010010D7
:1001B000CD010010CD010010CD010010CD010010C7
:1001C00000BE00BE00BE00BE00BE00BE00F04BF888
:1001D000103800BEF2EB8871708E0010988E0010FF
:1001E0003402001090A31AE700202149086006C8D5
:1001F00081F3088810471F48006800282FD10DA4FC
:100200000ECC002902D000F012F8F9E71A491B4A77
:10021000002000E001C19142FCD1194988471949E9
:1002200088471949884700BEFDE701C901C29A42C3
:10023000FBD37047988E0010C0000020C40400203B
:100240009C92001000000420000004209C920010EA
:1002500000100420001004200000000070470B482C
:1002600003F042FA0047EFF30580C0B27047000088
:1002700008ED00E0000000D0C8040020D4130020E6
:10028000A91F00109D050010691F0010575600009F
:1002900006005250ABB36053448600100600525023
:1002A000861C030254860010060052505422A29D60
:1002B0005C86001005005250DE65F4689C920010C8
:1002C000F8B5C04606480749091A8B10C90FC91866
:1002D00010B5491003D0044B002B00D0984710BD37
:1002E000C4040020C404002000000000054B10B529
:1002F000002B03D00449054800E000BFFFF7E2FFF0
:1003000010BDC046000000005C11002040760010C7
:100310007047704710B504001F2100F07DF90022DE
:100320000021200000F090F90021200000F0A6F943
:1003300010BD000010B50988014804F073FA10BD23
:100340004076001010B50988014804F06BFA10BD22
:100350008476001010B50B0049791A88588843013B
:100360001B1A9B001B18024804F05CFA10BDC04623
:10037000C076001070B582B04D7A0E88486803F0E0
:10038000E7FC074C074A084B03F057FC009001912B
:1003900032002900200004F045FA02B070BDC046CA
:1003A00000770010FCA9F1D24D62804070B50E00BC
:1003B0001500084804F036FA002405E0315D0648CF
:1003C00004F030FA0134A4B2A542F7D8034804F08F
:1003D000F7F970BD3C770010587700106077001077
:1003E00010B504F02BFAE1211D4C4902200001F068
:1003F00079FD0221002000F00FF90221012000F018
:100400000BF90221022000F007F90221032000F07D
:1004100003F9226BC0231B029343124A1360E26A62
:1004200010231340104A136007F086F81A20FFF7D4
:1004300071FF1B20FFF76EFF1C20FFF76BFF0B49BE
:100440000B68E022D2011340094A13600968E023D7
:10045000DB024B40F82149030B40136010BDC0463E
:1004600000400340305003402C50034000C0044083
:1004700000D0044010B5174B04221A60164B1B68BD
:10048000DB05FBD5144B5A68144B1A80FA20400048
:1004900001F085F90F4B04221A600F4B1B68DB0536
:1004A000FBD50D4B5A680D4B5A80FA20400001F0E5
:1004B00076F9084B04221A60074B1B68DB05FBD555
:1004C000054B5A68054B9A80FA20400001F067F905
:1004D00010BDC04600E0044000C004406C0B00208A
:1004E000002303E0034A0021D15401330A2BF9DD34
:1004F0007047C046240A002070B582B00E00150077
:1005000000240BE00B4B9B699B06FBD40278094B44
:100510001A60013101300029F4D00134A54205DD13
:10052000335D6A46D01D03700021F4E7002002B05D
:1005300070BDC0460040034070B50F4C3C22002106
:10054000200004F025F80D4B23600D4B63600D4B2C
:10055000A3600D4B63610D4BA3610D4B63630D4BAA
:10056000A3630D4D9A2252000021280004F010F8D8
:1005700096235B00EC5070BD1C110020AD030010F1
:1005800035030010450300105503001075030010DB
:100590001103001013030010E40B002010B5FFF747
:1005A0001FFFFFF7C9FFFFF79BFF154B154A127896
:1005B0001A7009225A7000229A70134A1278DA705F
:1005C000124A12781A71FFF755FF114A1488200A4F
:1005D0000F2318400A4948718C715488200A18402A
:1005E000C8710C729288100A03404B728A720B22F7
:1005F0000020FFF781FF074801F0D1F8E3E7C0468C
:10060000240A0020B9030020B8030020CE130020E4
:100610006C0B00202823000010B58300084A944684
:1006200063441A684024624080341440802252019E
:1006300013431C60C000034B9C466044416010BDE6
:1006400004C001400040014080000B4B9C466044C8
:1006500000290DD00823002A0CD00422134302687D
:1006600053400C221A4080235B0103431A607047F9
:100670000023F0E70022F1E704C00140002909D07F
:100680008000094B9C46604480239B010343402229
:100690001A6070478000044B9C466044C0239B0155
:1006A000034340221A60F4E704C00140EFF31080D6
:1006B00072B6034B1B68002BFBD0BFF35F8F7047F4
:1006C0002C0100D0BFF35F8F024B00221A6080F331
:1006D000108870472C0100D0F8B506000C001500FA
:1006E000FFF7E4FFE308F718F15C0722224001233B
:1006F00093400B4205D1DBB20B433B70FFF7E2FFA7
:10070000F8BD2100280001F0CBFCF0B583B0060055
:10071000019114001F00FFF7C9FF00E00134BC4243
:100720000CD8E308F518F35C0721214001228A4028
:100730001A42F3D1D2B21A432A7001E00124644272
:10074000FFF7C0FF002C02DB200003B0F0BD019BCF
:10075000002BF9D0089801F0A3FC0000034B1B68A4
:1007600002201840431E9841C0B2704700C00640A6
:10077000002307E0054A9A189200BFF35F8F00211B
:10078000116001331F2BF5D97047C046400000347B
:10079000054A1078431CDBB21370172B02D91300E3
:1007A00010221A707047C046BA03002010B582B0FC
:1007B0000100054C054B00931F2318222000FFF772
:1007C000A4FF02B010BDC046400B002064770010AB
:1007D000074B9B68103080001950BFF35F8FBFF349
:1007E0005F8F044B0021196082F310887047C04668
:1007F00000ED00E0240100D010B50388DA0A1C2ABD
:1008000005D15B055B1502335B00C01810BD034BBF
:10081000034A0448A72101F0ABFBC04680770010D3
:10082000F07900109877001010B5091A0B1F0A4ACA
:1008300088180A4A904208D8C90706D45B105B059D
:100840005B0D0748184380B210BD064B064A0748A7
:10085000992101F08DFBC046FC070000FE0F00004F
:1008600000E0FFFFDC770010E479001098770010BB
:1008700010B5091A04394A08090B08D14905490D70
:10088000064B0B430380064B1343438010BD054BBF
:10089000054A0648A12101F06BFBC04600F0FFFFAE
:1008A00000F8FFFF0C780010B8790010987700105E
:1008B00001238340034A10681840431E9841C0B288
:1008C0007047C04600E100E0002904D0034B1860E7
:1008D000034B18607047034B1860FBE780E200E0B1
:1008E00000E100E080E100E010B501238340180042
:1008F000FFF7EAFF10BD000001238340014A1360A7
:100900007047C04600E200E0024B9B681030800058
:10091000C058704700ED00E010B5FFF7F5FF002864
:1009200005D0054BC01A2F2803D8012010BD002088
:10093000FCE70020FAE7C046BC03002070B50400C5
:100940000D00EFF3108672B60C4B1B68002BFBD02A
:10095000BFF35F8F2000FFF7D7FF094B984201D00C
:10096000A84205D1320029002000FFF731FF70BDF9
:10097000044B054A05487C2101F0FAFA240100D015
:10098000CD0100101C780010187A00109877001024
:10099000F0B5DE4657464E464546E0B589B081463D
:1009A00001911500EFF3108A72B66E4B1B68002B95
:1009B000FBD0BFF35F8F6C4B00269E57002E41DBB0
:1009C0007400A419A400694824180622A256664B94
:1009D0001A70674B9A684B4610339B00D358984661
:1009E0001F00181A2F2839D9624B984530D105AF0E
:1009F000614B3B80614973009B46981980005B4BBB
:100A0000984640440230FFF70FFF78805C4BBB8074
:100A1000FF23BB71FD71019B079333005B449B0077
:100A2000434407CF07C301231C43A0465246414617
:100A30004846FFF7CDFE09B0F0BCBB46B246A9461A
:100A4000A046F0BD4F4B504A5048CD2101F090FADE
:100A50004F4B4D4A4D48D42101F08AFA01380C2100
:100A600002F096FE002912D101239F43BB463B00B2
:100A70000027DA79AA4211D90621595600290CDB40
:100A80004A005218920039491F008B18F1E7414B78
:100A90003D4A3E48E02101F06BFA1F00002F2FD0A5
:100AA00005AB3D4A1A80813A5A800623FB560293D1
:100AB000002B18DABD20000205AB9B469880029AF5
:100AC0009A71DD71019A0792381D2100FFF7ACFE83
:100AD000B880BE71254B7200921992009B185A463D
:100AE00013CA13C3A2E7381DFFF786FE010070008A
:100AF000801980001D4BC0180430FFF795FEDBE71E
:100B000005AF1D4B3B801D49730002939B199B0051
:100B1000164A90461A0042440392901CFFF784FE46
:100B20007880039A101D5946FFF77EFEB8801B4B54
:100B30005A464146521A524153431B0DBB71FD7137
:100B4000019A0792029B9B199B00434407CF07C35E
:100B5000114B5A461380813B538001231C43A0460E
:100B600064E7C046240100D0CF130020BC0300205E
:100B700000ED00E0CD01001000A1FFFFEC0300201C
:100B800000BDFFFF54780010007A00109877001025
:100B90007C780010A478001001480000AAAA000088
:100BA000F0B5CE46474680B583B006000D00EFF3A2
:100BB000108872B6504B1B68002BFBD0BFF35F8FC1
:100BC0004E4B9A6834001034A300D7584C4B9F42C8
:100BD00007D0AF4200D18CE001974A4BFB1A2F2B74
:100BE00009D9424639003000FFF7F2FD03B0C0BC1E
:100BF000B946B046F0BD3000FFF75AFE81460021ED
:100C00003000FFF771FEBFF35F8FFFF72CFB00286A
:100C100001D0844211D10123019C9C430021A3688F
:100C2000AB4212D00622A256002A0DDB53009B18BD
:100C30009B00344A2100D418F1E7334B334A2C216E
:100C40003348FF3101F094F92100AB424AD1062527
:100C50006557002D2CDB2B4B6A00521992009B1814
:100C60009A68A260DA79E2719B795BB2A371002B7A
:100C700010DABD200002A080224B6A0052199200B7
:100C80009B18244A11789971157049463000FFF776
:100C90002BFEA6E76800401980001A4BC0180430EC
:100CA000FFF7AAFD0100231D1800FFF7BDFDE2E7D5
:100CB000002812D100290ED0FF238B71164B8B8098
:100CC00014490B78A3710F4A144BA41A644163436F
:100CD0001B0D0B70D9E70A4FF2E71149201DFFF7F2
:100CE000C7FDD2E70F4B094A60210948FF3101F0E7
:100CF0003FF9034F75E7C046240100D000ED00E046
:100D0000CD010010BC03002018790010D07900102C
:100D100098770010CF13002000BDFFFFAAAA0000A3
:100D2000F60300203C79001070B50400012606434C
:100D30002D4BF31A2F2B28D8FFF795FA00282BD02C
:100D4000EFF3108C72B6294B1B68002BFBD0BFF35E
:100D50005F8F254A264D2100891A49414D432D0DAB
:100D60006DB2244B9B6880001B58B3421BD00021FE
:100D7000032932D81C4B4A00521892009B189B79C9
:100D80005BB2AB421FD00131F2E71B4B1B4AC221C1
:100D90001B48490001F0ECF81A4B184A8821184802
:100DA000FF3101F0E5F8134B9B68174A1A50174BB7
:100DB0001A78A2711D70BFF35F8F0C4B00221A606E
:100DC0008CF3108870BD084B4A005018800018182A
:100DD000FF2686710E4A8280E9E70E4B074ACC2136
:100DE0000748490001F0C4F8BC030020240100D0EA
:100DF000AAAA000000ED00E0447900109C790010E0
:100E0000987700106C790010CD010010CF130020EE
:100E100000BDFFFF787900100022044B02E0044976
:100E200002C30132072AFAD97047C04600E400E045
:100E30008080808000B583B00100D0231B061B6832
:100E400006481818064B009305230022FFF75DFCA7
:100E5000002801DB1F23181A03B000BDC8130020AF
:100E600080790010024B9C46614489000160704704
:100E700040000034084B5B6A994209D8064A926ADE
:100E8000824207D2994201D0012002E0002000E016
:100E9000002070470120FCE70040054010B5002904
:100EA0000AD003681B7B8B4206D38068054B9C46A7
:100EB00061440901401810BD034B044A04483B211A
:100EC00001F056F8FFFFFF0F347A0010BC7D0010D0
:100ED000587A0010F8B504001700FFF7DFFF066826
:100EE000456839002000FFF7D9FF026843680120F8
:100EF000AB4201D802D00020C0B2F8BDB242FBD84C
:100F0000F9E7000010B5002B02DB0260436010BD62
:100F1000024B034A03483F2101F02AF8987A001057
:100F2000887D0010B47A001070B582B006001400FD
:100F30001D00069A079B12196B419D4202D804D1ED
:100F4000944202D901225242D3176846FFF7DAFFD2
:100F5000009A019B32607360300002B070BD0000E7
:100F600010B5002908D0037B8B4205D300684B00E5
:100F70005B18033BC01810BD024B034A03486821AD
:100F800000F0F6FF007B0010647D00101C7B001059
:100F900010B5437B8B4201D1012010BDFFF7E0FF6C
:100FA0008378002B01D10020F7E70120F5E770B529
:100FB0000400857B002D01D1280070BD2900FFF7BA
:100FC000CFFF4378A373002B00D1E373002383701A
:100FD00043700370F0E70000F8B506000C00150040
:100FE000FFF7BEFF0700002C0DD0002D11D0AC4242
:100FF00015D029003000FFF7B3FF84703B78002B39
:1010000013D13D70F8BD0A4B0A4A0B486F2100F01E
:10101000AFFF0A4B074A0848702100F0A9FF084BB0
:10102000044A0548712100F0A3FF43703D70E9E7D1
:10103000707B0010407D00101C7B00107C7B00103A
:10104000887B001070B506000D001400002914D034
:10105000002A14D0436880689847002806D02200F0
:1010600029003000FFF7B8FF280007E02A00210020
:101070003000FFF7B1FF200000E0100070BD080055
:10108000FCE7000070B504000D1E0CD0FFF768FFF0
:101090000023837043700370617B2A002000FFF7F8
:1010A000D1FF607370BD034B034A0448A52100F0D3
:1010B0005FFFC046A07B0010547D00101C7B001019
:1010C00070B505000C1E08D0FFF762FF002804D1A0
:1010D000E97B002907D1EC7370BD054B054A064832
:1010E000F62100F045FF2800FFF73AFF4470F2E7D1
:1010F000A47B0010307D00101C7B001010B500296F
:1011000007D003681B7B8B4203D3C06801394018AA
:1011100010BD034B034A0448402100F029FFC0469C
:10112000347A00101C7D0010587A001070B505004C
:101130000C00080000F09EFB200000F083FC084932
:10114000200000F0C3FBFFF723FB064B9C466044E6
:10115000800068602C75044BA400E55070BDC0464B
:101160007912001040000034741100200A4B1A68F4
:10117000EFF3108172B61368002BFCD0BFF35F8FC2
:10118000054B1B68BFF35F8F00221A6081F3108844
:1011900040BF0020002170479013002010B582B09E
:1011A000040000F073FB02000B006846FFF7AAFE84
:1011B000009A019B22606360200002B010BD70B5F0
:1011C00084B0040016001D0002A8FFF7E7FF029A92
:1011D000039B009601952000FFF7A6FE200004B0B7
:1011E00070BD0000F0B583B0070001921D000AAB8E
:1011F0001C780BAB1E78002C0BD000682100FFF789
:10120000C7FE002809D0194B194A1A48652100F079
:10121000AFFE0068FFF7CBFE0400002C02D12000D7
:1012200003B0F0BD21003800FFF738FE019B0360DA
:101230004560089B8360099BC36038682100FFF705
:1012400021FFA042EBD1387D019A2B0000F086FBF4
:10125000051E01D0002E04D00C9B002BDFD01D708A
:10126000DDE73868210000F025FDF5E7C87B0010B8
:10127000707D0010587A0010F0B5DE4657464E4695
:101280004546E0B58FB00B900021784B8200D458D2
:10129000894682E029002000FFF700FE80460268B0
:1012A0004368921BBB41002B09DD43461A685B680B
:1012B0000B9800F053FB00239846002689E0002B92
:1012C00001D1002AF1D10021584600F0E9FC0700C5
:1012D000A84215D143461A685B68089209934346B1
:1012E0009E68DB689846002E10D029002000FFF78A
:1012F00005FF037899461B021F432761002068E021
:101300005B4B5C4A5C488C2100F032FE5B4B594AD7
:101310005948902100F02CFE2369002B77D0BB4266
:1013200019D106980799002342428B4100920193FC
:10133000089A099B0CA8FFF7F7FD0C9A0D9B00215A
:1013400004910131039102954146019100962000DC
:10135000FFF748FF16E04A4B464A47489F2100F0F6
:1013600007FE069A079B002B01D1002A52D1206864
:101370002900FFF7A5FE29002000FFF7BFFE037834
:1013800001330370002323616268BFF35F8F136032
:101390008AF310880120002861D00CA8FFF7FEFE18
:1013A0000C9E0D9F00220023089209936268EFF3C0
:1013B000108A72B61368002BFCD0BFF35F8F2368CE
:1013C0009B465D7B002D00D064E7002398460026F5
:1013D00000206368BFF35F8F00221A608AF31088D1
:1013E000002ED8D04B461F022F4341463800B0474D
:1013F000069007916268EFF3108A72B61368002BAB
:10140000FCD0BFF35F8F079B002B00DA84E7079BBC
:10141000002BA6DD2369002BA9D0BB4219D10CA853
:10142000FFF7BCFE0C9A0D9B06980799009001915E
:101430000CA8FFF779FD0C9A0D9B00210491013156
:10144000039102954146019100962000FFF7CAFEE4
:1014500098E70B4B074A0848A22100F089FD0FB01E
:10146000F0BCBB46B246A946A046F0BD74110020B0
:10147000F07B0010A07D0010587A0010087C00104E
:10148000147C001010B50A4B5B68002B04D009488F
:101490000A21FFF7E7FC10BD054C074A206823002E
:1014A000102100F076FB03212000FFF73FFEEEE75E
:1014B0000404002090130020D50E001010B5064B38
:1014C0005B68002B01D0044810BD044B044A05485A
:1014D0005C2100F04DFDC04604040020507C00104B
:1014E000047D0010587A0010F0B5DE4657464E468F
:1014F0004546E0B58DB0060090461F00169B9A4603
:10150000179B994618AB1B780793272302AA94468A
:10151000634400221A7021E001003000FFF7EEFD65
:1015200000783CE00698002B5CD0079B002B59D03C
:101530004946D04704000D0003000B4359D0002951
:1015400040DB08A8FFF72AFE089A099B0094019542
:1015500008A8FFF7E9FC089B9846099F7268EFF31B
:10156000108B72B6136859424B41D9B20691002BC9
:10157000F8D1BFF35F8F273302AA944663440493E4
:101580000023039302934B46019353460093424634
:101590003B003000FFF726FE0400051EBCD1736837
:1015A000BFF35F8F002119608BF31088002D17D0D7
:1015B000272302AA944663441B78002BB2D1000271
:1015C0002043B0E700236242AB41009201934246C0
:1015D0003B0008A8FFF7A8FC089B9846099FBDE7B9
:1015E000012040420DB0F0BCBB46B246A946A04621
:1015F000F0BD0698F6E7F0B5C64600B584B0050024
:10160000884616001F000AAB1C78FFF757FF0294AC
:10161000019700962A004346FFF766FF04B080BC9E
:10162000B846F0BDF0B5C64600B504000D004268EE
:10163000EFF3108772B61368002BFCD0BFF35F8FF7
:10164000EEB22368984631001800FFF7A1FC00288D
:101650002AD02369AB4213D02D0AEDB2310020000D
:10166000FFF74CFD0378AB4211D000206368BFF355
:101670005F8F00221A6087F3108880BCB846F0BDE7
:101680000C4B0D4A85210D48490000F071FC3100DA
:10169000404600F00FFB0028E8D1094B064A122112
:1016A0000648FF3100F064FC2369AB42DED1002321
:1016B0002361DBE7747C0010EC7C0010587A00108A
:1016C000987C001010B50400FFF7F8FE2100FFF72A
:1016D000A9FF10BD30B587B004000D00FEF7C3FDB3
:1016E000002820D106225242D31712196B41AB4277
:1016F00002D803D1A24201D90022002304A8FFF797
:1017000001FC02A8FFF74AFD02980399049A059B81
:10171000121A8B41002B0BDC08D02000290000F0AE
:10172000C1F807B030BD144800F0BAFC002AF4D06C
:10173000124A0498059900230093FFF75CFF0028E4
:1017400013DAEAE70E4B1A68EFF3108172B61368EA
:10175000002BFCD0BFF35F8F094B1B68BFF35F8F7B
:1017600000221A6081F3108820BF04980599FFF7C2
:1017700081FB0028E6D0D0E79C7C00106D110010A2
:101780009013002000B583B002000B006846FFF7FD
:1017900016FD00980199FFF79DFF03B000BD10B53D
:1017A000FA2292000023002102F038FEFFF7EAFF40
:1017B00010BD000030B583B005000C000A4A0023BC
:1017C0000093FFF718FF002808DD20BFFFF77AFF1E
:1017D00028002100FFF74EFB03B030BD2800210098
:1017E000FFF748FBF8E7C0466D11001070B5EFF346
:1017F00005833F2018401038EFF3108C72B6184B59
:101800001B68002BFBD0BFF35F8F012319008140C1
:10181000144A5163144A12781400C440234213D06E
:10182000104B5C6A114B8500EB589C4205D3104B62
:10183000EB580D4C8A43227007E00A4A031D9B00B7
:1018400099589950002300E00023BFF35F8F044AAA
:10185000002111608CF31088002B00D0984770BDD8
:10186000280100D000400540D31300209C13002025
:10187000300A002010B50100024A034B1800FEF7A1
:101880002BFF10BDC87D0010CD130020044B5B6AF8
:10189000034A906A1900536A9942F9D17047C046C9
:1018A00000400540084B5B6A01E0074B5B6A8B42D6
:1018B000FBD301E0044B5B6A8B4203D1024B9B6A72
:1018C0008342F7D37047C0460040054070B504001E
:1018D0000E00EFF3108572B61B4B1B68002BFBD07C
:1018E000BFF35F8F002E1CD02000FFF70DF8174BC1
:1018F00083420BD019002000FFF720F801212000BF
:10190000FEF7F2FF0123A340114A1360114BA4001C
:10191000E650BFF35F8F0C4B00221A6085F31088EE
:1019200070BD0C4BA2000021D1500122A2400A49F7
:101930000B7893430B7005492000FFF731F9002124
:101940002000FEF7D1FFE4E7280100D0ED170010DA
:1019500038600540300A0020D3130020F0B5DE4681
:1019600000B584B00400150001921E000293FFF739
:101970008DFF03958E4202D84ED185424CD9EFF3AC
:10198000108B72B6274B1B68002BFBD0BFF35F8F09
:10199000254A17780125A540EBB23B431370234B32
:1019A0005D63221D92000199D150214AA100029845
:1019B00088501B6A2B4212D11C4B1B6C2B4208D047
:1019C0000020BFF35F8F174B00221A608BF3108843
:1019D00023E0184B184A1948C12100F0C9FAFFF753
:1019E00055FF8E4214D802D1039B834210D80E4B70
:1019F0001B78BB420ED00D4B1D625D631F2222403F
:101A0000012393400E4A1360074B1F700120D8E753
:101A10000020D6E70120D4E7012004B080BCBB46FB
:101A2000F0BDC046280100D0D3130020004005407F
:101A30009C130020EC7D0010587E0010107E0010DA
:101A400080E200E0EFF3108C72B60B4B1B68002BAA
:101A5000FBD0BFF35F8F01238340084A136208491C
:101A60000A789A430A70BFF35F8F034B00221A6013
:101A70008CF310887047C046280100D00040054014
:101A8000D313002010B5002908D0037B8B4205D367
:101A900000684B005B18033BC01810BD024B034AA3
:101AA0000348682100F064FA007B0010687F001092
:101AB0001C7B0010F8B506000C001500FFF7E2FFD4
:101AC0000700002C0DD0002D11D0AC4215D02900FC
:101AD0003000FFF7D7FF84703B78002B13D13D70A7
:101AE000F8BD0A4B0A4A0B486F2100F041FA0A4B35
:101AF000074A0848702100F03BFA084B044A0548A1
:101B0000712100F035FA43703D70E9E7707B0010F9
:101B1000547F00101C7B00107C7B0010887B001021
:101B200070B506000D001400002914D0002A14D04E
:101B3000436880689847002806D0220029003000BA
:101B4000FFF7B8FF280007E02A0021003000FFF768
:101B5000B1FF200000E0100070BD0800FCE770B588
:101B600005000023437301338373037BC373012494
:101B700006E021002800FFF785FF0134E4B244703D
:101B8000297BA142F5D82800FFF77CFF0023437092
:101B900070BD10B5017342608360FFF7E0FF10BDB8
:101BA000F0B5C64600B505000C1E03D1200080BC70
:101BB000B846F0BDFFF766FF4678002EF6D031003C
:101BC0002800FFF75FFF4778002398464370210005
:101BD0002800FFF757FF43464370320021002800DA
:101BE000FFF79EFF040039002800FFF7D9FF02002D
:101BF00021002800FFF794FF0400D7E7F0B5C646A0
:101C000000B504000D001700002920D0FFF73AFFAF
:101C10004378002B21D18378002B24D10178200038
:101C2000FFF7BEFF06008046002F03D0E17B0029AE
:101C30001FD1E5734346002B20D129002000FFF778
:101C400021FF00234370300080BCB846F0BD0F4B2D
:101C50000F4A1048382100F08BF90F4B0C4A0D4801
:101C60003A2100F085F90D4B094A0A483B2100F062
:101C70007FF92000FFF706FF4570DAE7310020000A
:101C8000FFF700FF00238370D7E7C046747E001083
:101C9000407F00107C7E0010BC7E0010E47E0010AF
:101CA00070B504000A00457B2900FFF7A7FF6073A9
:101CB000280070BD70B506000C1E40D0437B8B42DF
:101CC00007D0FFF7DFFE05008178002906D100204C
:101CD00036E00121FFF7E4FF012031E03000FFF79B
:101CE000D1FE0178A1420DD03000FFF7CBFE417844
:101CF000A1420AD00029F7D1124B134A1348673189
:101D000000F036F96B78037001E06B7843700023C4
:101D1000AB706B70012221003000FFF76FFF0200F3
:101D2000717B814205D03000FFF7FAFE707301200D
:101D300006E0074B044A05486D2100F019F9002020
:101D400070BDC04678790010287F00107C7E00109E
:101D5000087F001010B5002B02DB0260436010BD4D
:101D6000024B034A03483F2100F002F9987A001021
:101D70002C800010B47A0010F0B585B00500160074
:101D80001F000192FA22920000230A98002102F01B
:101D900045FB02000B0092197B419F4202D804D1FF
:101DA000964202D901225242D31702A8FFF7D2FF6E
:101DB000029A039B2A606B60280005B0F0BD10B545
:101DC00082B00400FFF762FD02000B006846FFF7D7
:101DD000C1FF009A019B22606360200002B010BD29
:101DE00030B585B004000D0002A8FFF7E8FF029AA5
:101DF000039B00952000FFF7BFFF200005B030BD1A
:101E000010B50400FEF7C4FC01002000FFF72AF81B
:101E1000FF232371BFF35F8F10BD10B50400FEF7E1
:101E2000B7FC01002000FFF71DF8FF2323710023FA
:101E30006371BFF35F8F10BD034B9C466144890003
:101E40000160BFF35F8F70474000003410B504009D
:101E50000120FEF7ABFC01002000FFF7EDFF10BDF5
:101E600070B504000D00062000F034FAC00029000F
:101E700001F08EFCC60908D00E4B9E4217D87F2376
:101E80000340013335005E0800E001256562A6626B
:101E90002C3480239B01234300221A60062000F08B
:101EA00019FA8000A901891901F072FC70BD0026A1
:101EB000014DEBE7FEFF0000FFFF0000002909D005
:101EC0000A22064B9C46604443425841044B400062
:101ED000C252704780225200F3E7C0460080FCBF28
:101EE000AC13002070B505000C00062000F0F2F9DC
:101EF000002829D0164B9D4227D08022D203154BB3
:101F00001A60154B1A60154B9B6811009943FAD162
:101F100000212800FFF7D2FF21002800FFF7A0FFD3
:101F200029002C31EB6A602253400E321A40802384
:101F30005B010B431A600A4B2B6380239B010B430D
:101F400010221A600323AB6470BD80221204D6E70E
:101F50000080034000E0004000F0004000C000406E
:101F60000103000000BEFDE710B5FFF7FBFF000016
:101F700030B583B00D001900002A0BD0074B084C78
:101F8000019200932B000200200002F04BFC012084
:101F9000FFF7E8FF034B1A00F1E7C046448000104A
:101FA00054800010FC76001070B52B4B2B4A1A6041
:101FB0002B4B2C4A1A602C4B9A682A4B9343FAD12C
:101FC0002A4C01E008CC9847294B9C42FAD300F0F8
:101FD00001F9234B274A1A60234B9B68DB43DB0143
:101FE000FAD1254B40229A675A671A67DA66234C62
:101FF00009E0234B234A24488321FFF7B9FF20003F
:10200000FFF7FEFE0834214B9C4209D22368002BC7
:10201000F5D0012BEDD12000FFF7FFFE0834F2E7E9
:102020001B4DA9681B4CC022200002F0B7FAAC601F
:10203000FEF719F9002800D000BEFEF799FBFEF765
:10204000EBFEFFF71FFA144C01E008CC9847134B46
:102050009C42FAD370BDC04600E00040BFCDFBFEFD
:1020600000F00040FE7F3C0000C00040AC040020B7
:10207000BC040020FFFFFF0100F00140A404002089
:1020800084800010FC800010A4800010AC040020AC
:1020900000ED00E000000020BC040020C40400208B
:1020A0000FB400B583B0084802F08AFB049B002BF4
:1020B00007D005A90191180002F092FB034802F035
:1020C0007FFB0120FFF74EFFEC800010BC76001074
:1020D000F8B5DE4657464E464546E0B506000F00C9
:1020E00015000A9A93424ED31A0E92461B02984646
:1020F0000A9A00234046514601F08CFB8146740049
:10210000A419A4002E4B9C4664446368834200D209
:102110006060331FDBB29B46012B3AD9C0239B0181
:102120002343802212011A60264BB200D1580029A5
:1021300005D0586901F02CFB01300138FDD16D014B
:1021400023685D40E0222A4080235B0123431A601C
:102150005A46012A28D980239B0123438022120159
:102160001A604B4663604A4600234046514601F0E0
:1021700051FB144BB60098510120F0BCBB46B2464F
:10218000A946A046F8BD104B104A11482D21FFF773
:10219000EFFE012FC2D1C0239B01234303221A600B
:1021A000A368DB07FCD5CAE72168794003220A400F
:1021B0001A60A3680125BD401D42FAD0CBE7C04696
:1021C00000800040440B00200C8100106C81001046
:1021D0002081001030B583B00C2000F021F9FEF70B
:1021E000BDFA00280DD0002304E02E4A99002E48A5
:1021F00088500133092BF8D92A4B2C4A5A6203B074
:1022000030BD2B4B00229A6700F07CF9294B01224C
:102210001A60274B5B6C012BFBD1274B03221A6002
:10222000234B9B6B012BFBD1013300930433234AD7
:102230000121234800F054F805230093214A01218D
:10224000214800F04DF8214B009300220221042088
:10225000FFF73EFF1E4D00952B00002201210520B7
:10226000FFF736FF104C00942300002200210720C6
:10227000FFF72EFF00942300002200210820FFF723
:1022800027FF0A4B00932300002200210920FFF7BB
:102290001FFF00952B00002200210620FFF718FFEA
:1022A000ADE7C046440B0020006CDC021BB7000009
:1022B000008000403CB0004030B00040002F685922
:1022C00000800240008C864700C00240001BB7001F
:1022D00040597307014B8000C0587047440B0020E1
:1022E000F0B5C64600B504000F0090461D000C2056
:1022F00001F04EFA06003D4A42443D4B9A4243D813
:1023000043011B1A9901C91AC900091889014046DD
:1023100001F03EFA0200103A98235B009A4239D845
:102320006B1E062B3CD8069B013B062B38D8069B20
:102330009D423BD343461B09B3423DD32D04069B2C
:102340001E0335432368002B3CDB2A4B9C424AD0BA
:1023500080235B01284A1360284A1360284A926848
:1023600019009143FAD12760A060221DC0239B0170
:10237000134321221A602268002AFCDAE560082251
:102380001A6080BCB846F0BD1E4B1F4A1F48112181
:10239000FFF7EEFD1E4B1C4A1C481921FFF7E8FD14
:1023A0001C4B194A19481C21FFF7E2FD1A4B164A2B
:1023B00016482221FFF7DCFD184B134A134825214C
:1023C000FFF7D6FD22683F231340BB42BDD1A3686F
:1023D0001B051B0D8342B8D1E368EE22D2021340E5
:1023E000AB42B2D1CDE780239B01B3E780E84BD36A
:1023F00080F8A93200C0024000E0004000F0004038
:1024000000C000407C810010BC820010DC81001004
:10241000208200103C82001088820010A0820010F0
:1024200080239B000343014AD3627047008005402C
:10243000024B1A68024B5A607047C04618110020C0
:102440000080054010B5174B8022D2051A60164B4C
:10245000164A1A6000290AD0154BE022D2041A60ED
:10246000002809D1124B802212061A6010BD0D4BB4
:10247000E022D2041A60F3E743011B1A9B001818EC
:1024800000010C4B186080235B04984202D3094B77
:10249000094A1A60FFF7CCFF054B8022D2051A606B
:1024A000E4E7C04600B0054008200140FCFF010001
:1024B00000A0054018110020FFFFFF0010B5030029
:1024C00010000C4A8024E4051460002B0DD001227A
:1024D0001343094A094CD461094C5C4014625162AF
:1024E00093620021FFF7AEFF10BD034B0022DA61BB
:1024F000F7E7C04600B0054000800540D3C007B0F4
:102500002D3FF84F064BAA2212011A602F22DA60E3
:10251000044B054A1A60024B5B68002BFBDA7047DC
:10252000004002400060024000B0FA00704710B561
:10253000002802D00B684968984710BD01000020B0
:1025400007E083001B185B00501C08601078C0185F
:1025500030380A681378303BDBB2092BF1D9704769
:10256000F0B5DE4657464E464546E0B583B0934645
:102570001F000C9B9A460D9C0E9B99460F9B9B0738
:1025800003D0B8460F00060022E00192A346884619
:102590004E46B9460700B44207D2551C4B46414649
:1025A0002020B84701342A00F5E73D004F465C463D
:1025B000019B9B46B1464646B84637002E0007E0D1
:1025C000013C551C5346185D43463900B0472A006C
:1025D000002CF5D135003E0047460F9B9B0707D4E2
:1025E000100003B0F0BCBB46B246A946A046F0BD01
:1025F000B0464E46B9462F005D46531BB342EFD25C
:10260000541C4B4641462020B8472200F5E7F0B560
:10261000CE46474680B585B0944698460C9D0D9CA5
:102620000EAB1B789946109A119B129EB7071CD4CB
:10263000002B0CD0F7070AD54F46002F02D10C37DC
:10264000374204D0013B02E030272F550134944239
:1026500001D21F2CF8D9F70707D59C4205D21F2CB1
:1026600003D830272F550134F5E7F70612D5770543
:1026700005D4002C03D0944221D09C421FD00F9A45
:10268000102A32D00F9A022A37D01F2C0AD83022B3
:102690002A5501341F2C05D84A46002A33D02D2252
:1026A0002A550134039602930194009543466246ED
:1026B000FFF756FF05B0C0BCB946B046F0BD621E7C
:1026C000012C10D00F9F102F0BD014000F9A102A3E
:1026D000D8D1B206D6D51F2CD4D858222A550134C9
:1026E000D3E7023CCBE71400C9E7B206EED41F2CB7
:1026F000ECD878222A550134C7E71F2CD2D8603293
:102700002A550134C1E7720703D52B222A5501341B
:10271000C8E73207C6D520222A550134C2E7F0B5F2
:10272000DE4657464E464546E0B593B081468A465A
:10273000089209931CAB10CB1B789B461E9D219BD6
:102740009846002C03D1102342469A43904680239A
:10275000DB0046461E4042461A4212D0002C22D0D0
:1027600000260EE03033D9B2771C0AAB9955290008
:10277000200001F00DF8AC4216D31F2F14D83E00F4
:1027800004002900200001F003F8CBB2092BE9D99D
:102790004246920605D54121C918C9B20A39C9B2C3
:1027A000E2E76121F8E7270043460693209B059363
:1027B0001F9B049303955B46029301970AAB00931A
:1027C000099B089A51464846FFF721FF13B0F0BC19
:1027D000BB46B246A946A046F0BDF0B5DE46574618
:1027E0004E464546E0B597B00A900B910C929A463A
:1027F000209B9946219F22AA13789B46249B0993EC
:10280000259C289B98464A463A4302D1103293436E
:1028100098468022D20045461540434613420AD0CE
:102820004A463A4341D000252E0053460D934D466B
:10283000099B9A461BE02E0053460D934D46099B7B
:102840009A4614E03033DAB2731C99460EAB9A55AF
:10285000524623002800390000F0DCFFBC4226D895
:1028600019D04B461F2B1CD84E4605000F00524670
:1028700023002800390000F0CDFFD3B2092BE1D9A5
:102880004246920605D54122D218D2B20A3AD2B2B5
:10289000DAE76122F8E7AA45E3D94E460D9B9A464E
:1028A00008E04E460D9B9A4604E0002602E04E46A4
:1028B0000D9B9A4643460693279B0593269B0493BC
:1028C000099B03935B46029301960EAB009353461C
:1028D0000C9A0B990A98FFF79AFE17B0F0BCBB460A
:1028E000B246A946A046F0BDF0B5DE4657464E4674
:1028F0004546E0B591B0804689460C929A461A9CAE
:102900001B9D22002B002000290001F012FA002854
:1029100000D0ECE001225242D44B2000290001F00B
:1029200003FA002800D0E2E001225242D04B2000FE
:10293000290001F0E3F9002800D0D8E000220023AC
:102940002000290001F0DAF9002800D0E4E0069424
:1029500007958023DB001E9A1A400D921E9A1A4298
:1029600001D106231C930698079902000B000892D8
:10297000099303000A00024300D1D9E0080D400585
:10298000400DBC4EB44660440A03120B1E00BA4B05
:1029900013431F0001F0E0F9B84AB94B01F06BF99D
:1029A000B84AB94B01F040F9089009910022B74BA1
:1029B0003000390001F02FF9B54AB64B01F05BF950
:1029C00002000B000898099901F02EF901F0DCF9DA
:1029D000834601F0C1F906000F00AF4AAF4B01F08A
:1029E0004AF90022AE4B01F01FF901F0CDF9089031
:1029F000AC4AAD4B3000390001F03DF906000F0044
:102A0000089801F0A9F9A94AA94B01F034F902008C
:102A10000B003000390001F0FEF806000F00020044
:102A20000B0001F028F90A900B91089BA14A9446EB
:102A3000634400210022089109921B050993002399
:102A4000089332003B003000390001F0EDF80E90A1
:102A50000F9132003B0000208021C90501F0DBF816
:102A600006000F000022944B0A980B9901F0E5F83C
:102A70000022924B01F0D8F802000B000A980B9943
:102A800001F0DBF800228E4B01F0CEF802000B00C3
:102A90000A980B9901F0D1F802000B0030003900C0
:102AA00001F0C2F802000B000E980F9901F0C5F872
:102AB0000022714B01F0B8F8089A099B01F0DBF88D
:102AC00006000F0008960997069A079B01F02CF95B
:102AD00000282FD001235B429C46E3440022774B21
:102AE0003000390001F0A9F80890099122E01E9BFE
:102AF00004931D9B03931C9B0293009401955346E2
:102B00000C9A4946404600F0FFF811B0F0BCBB46B5
:102B1000B246A946A046F0BD0021002206910792C8
:102B2000069480231B069C46AC446346079310E73B
:102B300000239B465B466333C62B20D804261E9B8E
:102B40001B0528D5089A099B190011430FD05D4A2F
:102B50005D4B0698079901F0DFF800287AD0002233
:102B60005A4B0698079901F0C9F8002872D01C9BAF
:102B70005B4506DD5A469B1A013B1C9303E0052684
:102B8000DDE700231C938023DB001E9A1A431E926C
:102B9000002600239B461D9B9E4265D29F1B02235D
:102BA0001E9A1A400A921E9A134202D0002E00D09A
:102BB00000275B46002B07D0089A099B06980799C7
:102BC00001F03BF806900791002200232000290025
:102BD00001F094F8002800D07CE03D4B1E9A134091
:102BE000049303971C9B0293069B079C00930194FC
:102BF00053460C9A4946404600F086F8002E00D114
:102C000083E71E9B9B0671D54525441C5346020055
:102C100049462800C0475A46D317D2185A400523C0
:102C20000593013E0496002303930A3302935B4607
:102C3000DB0F019300925346220049464046FFF7BE
:102C40006EFD0A9B002B00D15FE7020047460C9EF9
:102C50001D9D53E01C9B002B9DD00D9B002B9AD0FB
:102C60001C9B013B1C9396E7002798E7FFFFEF7F33
:102C7000FFFFEFFF01FCFFFF0000F03FFB799F50DB
:102C80001344D33FB3C8608B288AC63F0000F83F87
:102C900061436F63A787D23F71A379094F930A40BD
:102CA0000000E03F1655B5BBB16B0240EF39FAFEAC
:102CB000422EE63FFF03000000002C4000002440AD
:102CC000000018402D431CEBE2361A3F80842E4151
:102CD000FFF7FFFF069C079D2200290080200006C9
:102CE000844661440B000692079376E765258CE7DE
:102CF000541C534649462020B8472200931BAB4240
:102D0000F6D3100001E7C046F0B5DE4657464E4602
:102D10004546E0B595B00690079193469946209FA9
:102D20001E9A1F9B1000190001F003F8002831D1F2
:102D300001225242BF4B1E981F9900F0DFFF00286E
:102D400037D101225242BC4B1E981F9900F0ECFF74
:102D500000283DD10022B94B1E981F9900F0E4FFD6
:102D6000002850D10022B64B1E981F9900F0C6FFD4
:102D7000002848D1002200231E981F9900F0BEFFB2
:102D8000002850D100239846229B5B0500D4B6E072
:102D9000002458E0229B0393219B02930323019379
:102DA000A84B00934B465A4607990698FFF7D8FB65
:102DB0000EE1229B0393219B029304230193A24BD8
:102DC00000934B465A4607990698FFF7C9FBFFE068
:102DD0000423229A1A4022990B4210D09B4B002ABE
:102DE0000FD004222299039121990291019200931C
:102DF0004B465A4607990698FFF7B2FBE8E0944B1A
:102E0000EDE70322EEE7229B0493219B03930297B5
:102E10001E9B1F9C009301944B465A4607990698A7
:102E2000FFF762FDD4E01E9A1F9B0020002100F0F6
:102E3000F2FE1E901F9101239846A5E70CAB3022AD
:102E40001A55013F01341F2C01D8092FF6D81E98BE
:102E50001F9900F099FF050000F07EFF02000B00B3
:102E60001E981F9900F0D7FE7A4BFA009B181A683B
:102E70005B680A920B9300F0FEFE0890099100F047
:102E8000A7FF060000F064FF02000B0008980999F4
:102E900000F0C1FE0890099100226F4B00F044FF42
:102EA00000282ED00136300000F052FF02000B0047
:102EB0000A980B9900F028FF002801D00135002660
:102EC000002F2CD1280000F047FF02000B001E98B5
:102ED0001F9900F0A0FE06000F0000225E4B00F0DC
:102EE0000DFF002846D100225B4B3000390000F076
:102EF0001BFF00283ED1EB073CD501353AE0062701
:102F000046E70022544B0898099900F0F7FE002884
:102F1000D6D1002E01D0F307D2D50136D0E7AA468C
:102F20001F2C11D8013F0A21300000F031FC651C34
:102F300030310CAB19550A21300000F029FC092E64
:102F40000ED906002C00EBE755461F2C0CD87B1E33
:102F5000002F09D00CAA302111551F000134F4E7CD
:102F60002B0055461C00F0E71F2C03D80CAB2E227B
:102F70001A5501341F2C10D80A21280000F0E0FB5C
:102F8000661C30310CAB19550A21280000F0D8FB23
:102F9000051E01D03400EDE734000323229A1340CC
:102FA000012B1CD01F2C06D84346002B32D00CAB73
:102FB0002D221A550134229B0393219B02930194E5
:102FC0000CAB00934B465A4607990698FFF7C8FA90
:102FD00015B0F0BCBB46B246A946A046F0BD219B49
:102FE000002B13D04346002B02D10C3313420FD0D9
:102FF000219B013B2193190003E00CAB30221A55B1
:1030000001348C42CED21F2CF7D9CBE72199F8E7B7
:103010002199F6E7229B5B0704D50CAB2B221A55AE
:103020000134C8E7229B1B07C5D50CAB20221A55DB
:103030000134C0E7FFFFEFFFFFFFEF7F65CDCD411C
:1030400065CDCDC1D4820010D8820010C882001096
:10305000D0820010808400100000E03FF0B5DE4612
:1030600057464E464546E0B593B08246884693465D
:103070001193002900D106E300255646119B1878CC
:10308000002800D102E3252809D06C1C5B462A00E9
:103090004146B047119B013311932500EEE7013300
:1030A0001193002720E001231F43013211920124D4
:1030B00018E002231F4301321192012412E004237D
:1030C0001F430132119201240CE008231F430132F7
:1030D0001192012406E010231F43013211920124B2
:1030E00000E00024002C09D0119A1378203BD9B2BB
:1030F0001029F6D88B00C449CB589F46119B1A78EB
:103100001300303BDBB2092B10D92A2A13D00B94C1
:10311000119B1A782E2A1ED0119A1378683BD9B2C7
:10312000122959D88B00B949CB589F4611A8FFF7EF
:1031300005FA0B90ECE71C9B1A1D1C921B68002BD8
:1031400004DB0B93119B01331193E1E70222174338
:103150005B420B93F6E78022D20017435A1C119270
:103160005A781300303BDBB2092B0BD92A2AD3D172
:103170001C9B1A1D1C921C68002C08DB119B013340
:103180001193C9E711A8FFF7D9F90400C4E7002497
:10319000F4E780235B003B43511C119151786C296B
:1031A00001D01F0018E0C0239B001F430232119280
:1031B00012E080233B43511C11915178682901D0C2
:1031C0001F0009E0C0231F430232119204E0802354
:1031D0005B001F4301321192119B1878672816D8A3
:1031E000252826D30300253BDAB2422A21D89300B2
:1031F000874AD3589F4680239B001F430132119278
:10320000EAE780235B001F4301321192E4E778284C
:103210000FD869280DD30200693AD2B20123934036
:103220007C4A13420FD11A0600D507E25B0500D590
:1032300094E16C1C5B462A004146B047119B013368
:10324000119325001AE778280AD062283AD06F280F
:103250003BD058283CD010239F43063B9C4601E0BE
:1032600010239C46582836D0692803D0642801D002
:103270000C2297437A0501D50122974369282DD066
:1032800064282BD0BA0500D5A2E0FA0500D5C3E02A
:103290007A0600D4D5E01C9A111D1C911168FF22FA
:1032A0000A4005970B9B0493039463460293002303
:1032B000019300925B462A0041463000FFF72FFA47
:1032C00005002AE002239C46CCE708239C46C9E778
:1032D00010239C46C6E720221743C5E7BA0520D431
:1032E000FA0550D47A0666D51C9A111D1C911168F6
:1032F000FF220A40D0171118414005970B9B0493F9
:10330000039463460293D20F019200915B462A0018
:1033100041463000FFF703FA0500119B013311937A
:10332000ACE61C9A073207218A43110008311C9130
:10333000116853689946DB170C930D930C9A0D9BFB
:10334000100048400E904A4653400F930E980F9934
:103350000C9A0D9B801A99410E900F9108970B9B28
:103360000793069463460493002305934B46DA0FB4
:103370000292009001915B462A0041463000FFF71F
:103380002CFA0500C9E71C9A111D1C911268D01770
:103390001118414005970B9B0493039463460293D5
:1033A000D20F019200915B462A0041463000FFF7A0
:1033B000B6F90500B1E73A0605D51C9A111D1C9116
:1033C0000023D25E96E71C9A111D1C91126891E7AA
:1033D0001C9A073207218A43110008311C91089773
:1033E0000B9B079306946346049300230593029373
:1033F00053681268009201935B462A0041463000F0
:10340000FFF7EBF9050088E7E08200102483001045
:1034100070830010419000001C9A111D1C910597AB
:103420000B9B049303946346029300230193136858
:1034300000935B462A0041463000FFF770F9050013
:103440006BE73A0606D51C9A111D1C9112681204EE
:10345000120C26E71C9A111D1C91126821E74628C0
:1034600019D01C9B0733072293431A0008321C9281
:1034700004970B9A039202941A685B680092019376
:103480005B462A0041463000FFF73EFC0500119BD9
:1034900001331193F2E520231F43E2E7672801D0AF
:1034A000472802D180231B011F43452801D047280C
:1034B00001D120231F431C9B0733072293431A008B
:1034C00008321C9204970B9A039202941A685B6864
:1034D000009201935B462A0041463000FFF704FA50
:1034E0000500119B01331193C8E502231A003A40ED
:1034F00091463B421DD001241C9B1A1D1C926F1C3F
:1035000018785B462A004146B0474B46002B14D141
:10351000119B013311933D00B0E5571C5B464146BA
:103520002020B04723003A005C1C9D42F5D81500CE
:10353000E2E701232A000B9DF6E73A00B1460B9E15
:1035400006E0571C5B4641462020C8472C003A0045
:10355000651CA642F5D817004E46D9E71C9B1A1DDC
:103560001C921B689A46002C25D1012252425346D8
:1035700001E001330A001978002902D0511E002A07
:10358000F7D152469B1A8022D20039001140894659
:10359000174202D0A34200D9230002221100394071
:1035A00010913A4209D02A00250057469A46330026
:1035B0004E46994621E02200D9E72A004546A0461A
:1035C00006E0541C5B4629002020B0473B00220047
:1035D0005F1C0B999942F4D84446A8463B0025004D
:1035E00057469A4633004E46994606E01D0001377D
:1035F000541C5B464146C84722003878002804D056
:10360000002EF4D06B1E002DF0D1150053464E460F
:10361000109A002A03D1119B013311932EE50B9FC1
:103620002A0006E0551C5B4641462020B047230097
:103630002A005C1C9F42F5D81500ECE721233B4390
:103640001C9A111D1C91126805930823049303947E
:10365000083302930023019300925B462A004146FF
:103660003000FFF75CF80500119B0133119305E56D
:103670006C1C5B462A0041462520B047119B013354
:1036800011932500FAE40B4B9A46F5E4B2465D45EA
:103690000DD35B465A1E5B4641460020D0472800AA
:1036A00013B0F0BCBB46B246A946A046F0BD2A0006
:1036B000F1E7C0462D25001000B585B002900391BA
:1036C00001210448009313004A4202A9FFF7C6FCF7
:1036D00005B000BD2F25001001480421014B1847FB
:1036E000300400200937001010B5010018231B8892
:1036F00014221088984710BD10B5010018231B88AC
:1037000016221088984710BDF0B5C64600B50700D0
:103710000E0000250123984600E00135B5420AD28B
:10372000AC003C192068FFF7DFFF20600028F4D1CF
:1037300000239846F1E7404680BCB846F0BD000043
:10374000124A936F9B0815D29066D166002905D066
:10375000FFE7FFE7FFE7516F106F704704B5802167
:103760000906C2175140002800D0C84303F048FFA3
:10377000002104BDF0B5146E556E576F166FFFF73C
:10378000E3FF1466556657671667F0BD000000D06A
:10379000114A936F9B0813D210665166002905D019
:1037A000FFE7FFE7FFE7516F106F704704B5002890
:1037B00001D00020C04303F023FF002104BDC04618
:1037C000F0B5146E556E576F166FFFF7E5FF146670
:1037D000556657671667F0BD000000D094464E4A04
:1037E000926F9208624601D230E0C046F0B54A4E70
:1037F000B56F6D08FCD3346E756E776F366F00F061
:1038000025F89446444A146655665767166762461B
:10381000F0BDC0469446404A926F9208624601D27B
:1038200058E0C046F0B53C4EB56F6D08FCD3346E21
:10383000756E776F366F00F04DF89446364A146611
:103840005566576716676246F0BDC046002B24DBFD
:1038500011D000293EDA00B5C943404200D1013100
:1038600000F038F8C943404200D10131DB435242F5
:1038700000D1013300BD002AEBD1002801D100297D
:1038800005D00020C90FC90701D1C043410800B5C8
:1038900003F0AEFE0022002300BD00B500290ADBC4
:1038A000DB43524200D1013300F014F8C9434042D7
:1038B00000D1013100BDC943404200D10131DB4399
:1038C000524200D1013300F005F8DB43524200D1EF
:1038D000013300BD002923D1002B18D1002A0CD0C0
:1038E000BC460D4F38667A6600210023FFE7FFE7EC
:1038F000FFE77A6F386F67467047002801D00748A6
:10390000010000B503F074FE0022002300BD020098
:103910000B00002000217047000000D0FFFFFFFFD8
:10392000002B00D0BFE0130C28D1002AE7D080B4D0
:10393000114F39667A66FFE7FFE730B4040C7B6FFE
:10394000396F1B0423433B667A66FFE7FFE7FFE717
:10395000C04684B27B6F3D6F1B0423433B667A668F
:10396000FFE7FFE7C04600232C042D0C7A6F386F69
:1039700000196941B0BC7047000000D0F0B5944612
:103980000025140E01D112020835140F01D11201C5
:103990000435940F01D192000235D40F01D15200A9
:1039A0000135D40B0134254F7C66254C3C660E0C4A
:1039B00093B2FFE7FFE7FFE73C6F6643360C770300
:1039C000BE467343DF0B5B04C01AB941130C73434B
:1039D000DB18C91ACE086643360CB64493B273435B
:1039E0001F0F1B01C01AB941130C73431F0B1B059A
:1039F000C01AB941860D8F023E436643360C092D2D
:103A000024DB520A7243801A7703460A6643360C57
:103A100016235B1BDE40DF40BF1964466643821BF2
:103A20007046043506330100D940A840C01900D3C0
:103A30000131A24206D20023F0BD0000000000D0F8
:103A4000FFFFFFFF121B0130F3D3F1E709277F1BB4
:103A5000FE406446A2B27243801A00D20139220CA1
:103A60007243130C1204821A99410B0070460435FC
:103A700013370100F940A840801900D30131002B11
:103A800002D1A2420AD2F0BD013000D30131121B93
:103A9000FAD2013BF8D1A24200D2F0BD013000D3EE
:103AA0000131121BF7E7F0B51C0C00D080E00CB41C
:103AB00000251C0A04D11B02160E334312020835DE
:103AC0001C0B04D11B01160F3343120104359C0B50
:103AD00004D19B00960F334392000235DC0B02D1D8
:103AE00092185B4101351C00971864410134464F20
:103AF0007C66464C3C660E0CFFE7FFE7FFE7C046DE
:103B00003C6F6643360C7703BE4697B27743C01BC3
:103B100000D20139C01B00D201399FB27743C91BC3
:103B2000C91B170C77437E04FF0B801BB941CE08DD
:103B30006643360C0C2D33DBB644120B1F053A439B
:103B40001B0B97B27743C01B00D201399FB277435A
:103B5000C91B170C77433E043F0C801BB941860DEF
:103B60008F023E43664329277F1BFE400C3D77466C
:103B7000AF40BF1930BCA2B2ABB272437343801ADC
:103B80009941220C7243130C1204801A99410200CD
:103B90000B000137001BA941F9D2781E0021F0BDAE
:103BA0000C277F1BFE4077467F0BAF40FF19E0E7F5
:103BB00000245D1C07D0144F7D663966FFE7FFE7E0
:103BC000FFE7FFE73C6F95B29EB265436643401B3B
:103BD000B141150C1E0C6543664336042F0C3E4361
:103BE0002D04401BB141994204D202000B00200079
:103BF0000021F0BD01D19042F7D3801A99410134E0
:103C00009942F2D3F6E70000000000D0FFFFFFFF6B
:103C100048404140484018B41B4B5B68FC46019348
:103C200008BD04DFEF3E001018B4174B1B68FC46BC
:103C3000019308BD00DFF93E00109446134A926FCD
:103C4000920809D2624618B40F4BDB68FC46019318
:103C500008BD0CDFB14100100C4AF0B5146E556E72
:103C6000576F166F6246FFF7EEFF084A14665566F7
:103C700057671667F0BD18B4034B9B68FC46019369
:103C800008BD08DF554000108C110020000000D056
:103C9000FFB550404240504059404B40594000E031
:103CA000FFB5154F4C00640D03D0BC4204D10C038A
:103CB00014D80020090D09055C00640D03D0BC4236
:103CC00004D11C030AD800221B0D1B0501264B4002
:103CD00009D44B4003D58B4200D18242FFBD9942AB
:103CE000FCD19042FFBD0B43DB1803431343F5D0D7
:103CF000C9434918FFBD0000FF07000000B5FFF7EA
:103D0000CFFF804100BDC04600B5FFF7C9FF01D914
:103D1000002000BD012000BD00B5FFF7B9FF01D9AB
:103D2000002000BD012000BD00B5FFF7B1FF8041BC
:103D300000BD012040054A00121804D85A0012188C
:103D400001D8002070470120704700207047000014
:103D50000021002805D17047C1174840401AFAD009
:103D6000C90713B5064B1B6898470CBC441CA240FE
:103D70001005120B0349091B09051943114310BD16
:103D80008C1200201F04000010B54C00620D80232F
:103D9000D218DB00D21A5B057E2A10DD9E3A13DAB8
:103DA000CC170903490819435242D1406400013439
:103DB0001532202A05DAD0400843604310BD0020A8
:103DC00010BD0846604310BDC80FC018013810BDB3
:103DD00018B4044B5B6AFC46019308BD24DF6143C1
:103DE000001000008C11002070B513231C78012CEA
:103DF00012D0012C12DC214B214A93642148FFF799
:103E000073FC214B186070BD1C491D4A98008150FD
:103E100001331F2BF8D9ECE70023FAE71B48FFF723
:103E20006BFC05001A48FFF767FC023803789B001B
:103E30007F2B09DD12488022290000F0AFFB022C05
:103E400008D0022CDADCD6E7124B134A1348322191
:103E5000FEF78EF8124B1A88B5231B029A4209D13D
:103E6000104B1A88104B9A4204D1104B1A88104BF1
:103E70009A42E6D00020FEF713F9C046B53E001086
:103E80008C1100204C3300008C12002053440000A1
:103E900053460000D084001080850010308500104B
:103EA00054380000D8380000494600009C38000013
:103EB0005946000007B56046002800D100BE0188C1
:103EC0000A0A0230DF2AFAD1C9B2820804D3028872
:103ED00040880004104300E00068024A50500390FC
:103EE00007BD00008C1100200FB403BC0CBCF0B562
:103EF0000124E407634000E0F0B50C0DCF0F661E0F
:103F00003605891B640503D3C943404200D3013100
:103F1000640D03D0661CF60A07D0E41B00207F0066
:103F2000791C89078912803C24031D0DDF0F6E1E4A
:103F300036059B1B6D0503D3DB43524200D301338F
:103F40006D0D03D06E1CF60A07D0ED1B00227F001A
:103F50007B1C9B079B12803D2D032F1B661B58D497
:103F6000A446202E46DA20371400BC401D00BD4078
:103F7000F24033412A4380185941CB0F05D0C94341
:103F8000C043002264425041514162464D0D28D148
:103F90000D0D07D100281FD0241940414941013A95
:103FA0000D0DF9D0640006D3013000D30131002C8F
:103FB00001D140084000013A0BD4941CE40A04D11A
:103FC00012051144DB071944F0BDD907204B1943F2
:103FD00000E0D9070020F0BD0029DDD1002CDBD1A5
:103FE000F0BD0132C6074008CD0728434908002E1E
:103FF000E1D0D9E73C2E29DA203E40371400BC40FE
:1040000000D00124F24014431A00BB401C43D317D4
:10401000ACE7AC46202F08DA20360400B4400D008F
:10402000B540F84039412843A5E73C2F0CDA203F42
:1040300040360400B44000D00124F8400443080096
:10404000B1400C43C117EAE710001900002494E7BF
:104050000000F07FF0B50C0D661E3605891BE60AE0
:104060006405640D02D0651CED0A04D00020012116
:104070000905803C2403A4461C0D671E3F05DB1B7D
:10408000E70A6405640D02D0651CED0A04D0002225
:1040900001231B05803C24037740644497B484B219
:1040A00096B27443070C7E43150C6F4380B268438D
:1040B000361802D3012000043F183004350C0019D3
:1040C0007D41844688B29AB250430C0C62431F0C67
:1040D0007C438EB27E43921902D301263604A41982
:1040E0001604170C3618674101BC81B29AB25143CD
:1040F000040C62431B0C5C4380B25843121802D379
:104100000120000424181004130C401863412D18DA
:104110005E410020474106BC88B293B258430C0C64
:104120006343120C544389B251435B1802D30121FB
:104130000904641819041A0C091862416D185641D3
:104140000020474118BCF902720D1143F0026A0DBC
:104150001043ED020A0D03D16D1940414941013B65
:10416000124E9B1B7600B3420ED26D0007D3013076
:10417000002671416646354301D1400840001B05C9
:10418000C918E4072144F0BD0BDA013306D1013030
:1041900004D101314F0D01D04908F2E7E1070020B9
:1041A000F0BD013631050020EBE70000FF03000001
:1041B000F0B51C0D671E3F05DB1BE70A6405640DA7
:1041C00002D0661CF60A04D0002201231B05803CA5
:1041D0002403D0252D060026F6432E661E096E66A2
:1041E000CE0FF619B44649004F0D02D07E1CF60AD8
:1041F00003D000200021403F3F033E1BB600B444E3
:10420000013F7F05C91B49082E6F013676089C02C5
:10421000950D25437543ED137543AD1301356D10B1
:10422000F603761B0CB4CC02450D2C43A2B2B3B2FC
:104230005A43270C7B43350C6F43A4B26C431B19C4
:1042400002D3012424043F191C041D0CA4187D4131
:1042500024196D41009A91B2ACB26143170C7C43B2
:104260002B0C5F4392B25A43A41802D301221204CA
:10427000BF182204230C52187B41019C6C431B196C
:10428000520ED9010A434401A01A81B2B2B251437D
:1042900003145A43360C734387B27743D617D219A7
:1042A00000277E4136049B191704160C7F185E41C7
:1042B0007316ED18F301002680337541A90F06D15E
:1042C0006400690AE8055B0A184309D22FE004225A
:1042D000944480337541A90AA8059B0A184326D344
:1042E000404149412404009A019B0D005543641B41
:1042F0004343E41A95B286B27543170C7E43030C10
:104300005F4392B25A43B61802D301221204BF1877
:104310003204330C52197B4152429C41002C02D48E
:104320000022013051414008CA071043490802B039
:104330006246D7079210084BD218084B9A4203D214
:1043400012058918C919F0BD0020002A01DC3900C6
:10435000F0BD01331905F5E7FD030000FE0700007D
:10436000002200B5203200F004F8080000BD000073
:1043700000220B150AD410B5944600F031F814143D
:10438000013400DA0021CB17144C20470020002113
:1043900070476244343A0CD40C2A07DA0400914086
:1043A000904052422032D440214310BDD843D943DB
:1043B00010BD203207D40C469440524220321141A5
:1043C000D040204310BD0800C917203203D4524208
:1043D0002032104110BD1800190010BD9343001089
:1043E0000A0DCC0F531E1B05C91A520503D3C9432E
:1043F000404200D30131520D03D0531CDB0A07D0D9
:10440000121B00206400611C89078912803A120384
:10441000014BD21A70470000FF0300005143434391
:10442000C9188C46110C83B24B4310B4040C614381
:1044300092B280B2504362431C041B0C001910BCA2
:1044400059411304120CC0185141614470470000D7
:1044500070B513231E782A48FFF74EF90500012E88
:1044600011D0012E09DDAB1E1B789B007F2B40DD98
:1044700024488022290000F091F82348FFF734F9FE
:10448000224B186070BD1F485422290000F086F8A6
:104490001F4B1A881F4B9A421CD1A7239B011A88D5
:1044A0001D4B9A4216D11D4B1A881D4B9A4211D1B1
:1044B0001C4B1A8894239B019A420BD11A4B1A88E1
:1044C0001A4B9A4206D11A4B1A681A4B9A4201D1DA
:1044D000152307E01848FDF7E3FD184C094A990039
:1044E0008C5001331F2BF8D9144B064A1362D36149
:1044F000B7E7134B134A14484221FDF739FDC04674
:1045000053460000901200204C3300008C12002013
:10451000EE290000C40F0000C20D0000962B000021
:10452000C0B50000182B0000CC2A000010B5000018
:10453000FC2C000051ED8764FC7600104D45001006
:104540009485001018860010C885001007B56046D5
:10455000002800D100BE01880A0A0230DF2AFAD101
:10456000C9B2820804D3028840880004104300E0E6
:104570000068024A5050039007BD000090120020CE
:1045800001480421014B184740040020093700105E
:10459000014B1B681847000040040020014B5B687A
:1045A000184700004004002010B503000800110067
:1045B0001B68984710BD0000F8B507000D001600F5
:1045C000437C002B02D0002400200CE00368110083
:1045D000280098472DE03B7C10E03B6815480221FD
:1045E0009847601C0134B44214DA002CF3DD2B1917
:1045F000013B1B780D3B5A425341DBB22A5D0A2A2C
:10460000F0D1002BEED1A042E7DA3B68211A28183E
:104610009847E2E7B04203DA3B68311A2818984716
:10462000002E06DDAD19013D2B780D3B5A4253415A
:104630003B74F8BD8C86001070B505000368002B34
:1046400016D00C4B1C6805E0290004C92000FFF7B8
:10465000B3FFE468002C09D02368002BF9D0064B87
:104660001B68002BF0D0A342F3D1EDE700232B60B1
:1046700070BDC046DC0B0020E00B002070B50500CB
:104680000C000B68802B05D023685A1C2260E418AC
:10469000257170BD0800FFF7CFFFF5E710B582B0B8
:1046A000D0231B0600241C57074801A902F0B0FFC5
:1046B000002806D1019B9C4203D0034802F0B8FFBA
:1046C000012002B010BDC046A404002010B502486D
:1046D00002F086FF10BDC046A4040020F0B5CE460F
:1046E000474680B583B006000D0090461C00FFF7DA
:1046F000D5FF81466B1C05D0002C08D0194F1A4BF2
:104700001C6807E0300002F031FF0500F4E7174FA6
:10471000F5E7E468002C17D02368002BF9D0144B80
:104720001B68002B01D0A342F3D12A0031002000E6
:10473000B8474346002BECD06B46D91D0A230B70BB
:1047400001222000B847E4E74B46002B07D16B1E3F
:104750009D41E8B203B0C0BCB946B046F0BDFFF71A
:10476000B5FFF4E7A9450010DC0B0020B9450010A7
:10477000E00B0020094A01E00C331A001368002BFB
:1047800008D08342F8D1002907D1C3681360002301
:10479000C36002E0002900D010607047DC0B0020ED
:1047A00010B5064B1C6801E09847E468002C03D064
:1047B0006368002BF8D1F8E710BDC046DC0B002081
:1047C00070B5050002F0D2FE0400002301220100B2
:1047D0002800FFF783FFFFF7E3FF200070BD000014
:1047E00070B5A2B004000E00FFF758FF0500842248
:1047F000002101A8FFF7CCFE09483300220001A9DF
:10480000FEF75AFF040001A8FFF716FFFFF7C8FFE5
:10481000002D02D1200022B070BDFFF757FFF9E74D
:104820007D4600100FB400B583B004A901C9019101
:10483000FFF7D6FF03B008BC04B0184710B500F06E
:104840008DF800F063FA10BD10B582B00C00144B67
:10485000C3185A425341134A5B009B5E8B4204D0FB
:104860006B46DA1D1470002115E06B46DA1D0D232E
:10487000137000210029F3D183699B06FCD41378BF
:10488000036001310132F5E783699B06FCD413789C
:104890000360013101320029F6D002B010BDC046DC
:1048A0000080FCBFAC13002082B000226B46D91DF3
:1048B00006E08369DB06FCD403680B70013201312A
:1048C000002AF6D06B46D87902B0704770B5060062
:1048D0000D00002405E0315D034B1868FFF7B4FFBD
:1048E0000134AC42F7DB70BDB0130020F8B5060010
:1048F0000D00002405E0671C3419FFF7D5FF207078
:104900003C00AC4204DA054A10688269D206F2D54E
:10491000002C01D02000F8BD033CFBE7B0130020C1
:1049200070B515001C000B4B1860FDF7DBFA002D6D
:1049300006DA002C09DA08480121FFF71BFF70BDD9
:1049400002212800FBF768FEF3E702212000FBF7B5
:1049500063FEF0E7B01300205004002010B5064BB2
:104960001B78064B1B78E1210123002249020448F1
:10497000FFF7D6FF10BDC046908E00108C8E001041
:104980000040034070470000014B00221A7070473E
:10499000D01300204B79FF2B0CD18B79002B0BD13E
:1049A000CB79012B0AD1082A0AD98A78054B1A70CB
:1049B000092000E0002070470020FCE70020FAE713
:1049C0000020F8E7D01300200120704770B50400E4
:1049D0000D000348FEF788FE0300290020009847D9
:1049E0005542000010B5002926D1117953791B02D8
:1049F0000B43124909788B4201D0002010BD537837
:104A0000012B03D0022B10D00020F7E79178D37848
:104A10001B021943DB0503D54B0A0120984000E037
:104A200000207F231940FFF7D1FF642200210020DE
:104A3000FDF744FD0120E1E70120DFE7D01300206E
:104A40000123037000487047D086001010B50A7823
:104A50004B781B0213438A7812041A43CB781B0647
:104A600013439622D200934200D010BD00210800CB
:104A7000FFF7ACFF30B583B004000D00184801A962
:104A800002F0C6FD002808D1D0231B061B68019A3E
:104A90009A4221D0124802F0CBFD002001F028FEFE
:104AA000002807D1032464420D4802F099FD20003C
:104AB00003B030BD002001F037FE002802D10324EE
:104AC0006442F1E72A002100002001F039FE041EB3
:104AD000EAD103246442E7E703246442E7E7C046DF
:104AE0009413002010B50648002102F091FD002823
:104AF00000D110BD01F0B4FB014802F071FDF8E7F0
:104B000094130020F0B5C64600B582B080460D0073
:104B10002E4801A902F07CFD002808D1D0231B06F5
:104B20001B68019A9A420FD0284802F081FD0020AC
:104B300001F0DEFD002847D1254B00200021186040
:104B40005960224802F04CFD02B080BCB846F0BD6E
:104B500001F086FB002001F007FE002001F0C8FDF7
:104B60000028EED0002001F081FE00281DD0AC42CC
:104B7000E7DA2E1B002001F079FE0200864200DCFD
:104B80003200002AE4D043461919002001F052FEF9
:104B9000060001F065FB002001F0E6FDA419FCF71A
:104BA00075FE0B4B18605960E1E7FCF76FFE084B90
:104BB0001E685F68074A002392197B419942C0D85A
:104BC000D5D19042D3D9BCE70024D0E7941300207C
:104BD000C805002020A1070010B5002B02DB0260F1
:104BE000436010BD024B034A03483F21FDF7C0F963
:104BF000987A00105C870010B47A001010B582B06B
:104C00000400FCF743FE02000B006846FFF7E4FFD8
:104C1000009A019B22606360200002B010BD70B555
:104C200082B0060014001D00069A079B12196B4102
:104C30009D4202D804D1944202D901225242D31794
:104C40006846FFF7C9FF009A019B3260736030002D
:104C500002B070BD10B50A4B1A78D0231B061B6832
:104C60009A4207D1074B1878FBF746FEFA208000DE
:104C7000002110BD044B054A05483221FDF778F9A3
:104C8000D2130020D1130020E88600107487001092
:104C90001087001010B5024B1878FBF72DFE10BDE1
:104CA000D1130020F0B587B0040016001D000EAB34
:104CB0001F7804A8FFF7A2FF049A059B00960195B0
:104CC00004A8FFF7ACFF049A059B02970D99019188
:104CD0000C9900912000FCF707FC07B0F0BDF0B57F
:104CE000C64600B584B00500884616001F000AAB12
:104CF0001C78FCF7E3FB0294019700962A004346D8
:104D0000FFF7D0FF04B080BCB846F0BD10B582B04C
:104D1000D0231B061A781B4B1A701B4B1B7801F013
:104D2000E7FF1A48FDF76CF80120FCF783F8184CF0
:104D300020701849FF231840FBF700FE207801215E
:104D4000FBF7D2FD0520FBF7E7FD041E0BD012494F
:104D500000220520FBF71CFE10480121FFF70AFD89
:104D6000200002B010BD0E4A012300930023FA2058
:104D700080000021FFF7B3FF431E9841C4B2002812
:104D8000EED0E9E7D2130020948E00109413002097
:104D9000D1130020E54A0010954C00106404002057
:104DA000554C001000487047388800100048704784
:104DB000E487001010B50400154B1B78002B0ED0B3
:104DC000002C11D1134B144A5A80012301335B008C
:104DD0009BB21048C02292001343038010BD0C48C0
:104DE000112102F057FBEBE7052C0ED80B4BA4006A
:104DF000E4580023122BE9D8E15C0029E6D0013306
:104E0000044A58008152DBB2F4E70020E6E7C046CE
:104E1000B4130020B40B002009040000CC8700105C
:104E200002007F201040D209400080184001014B51
:104E3000C0187047180D002010B582B001AB074AAA
:104E40001A80002406E001AB185DFFF7E9FF01239B
:104E5000C3700134012CF6D902B010BD0080FFFFF1
:104E600010B5838B3F333F229343022915D0124C58
:104E70002268C260D31823609C0610D10F4C624098
:104E8000634080246401A3420FD889061143802324
:104E90001B060B434268136010BD5B00E7E7084B3D
:104EA000084A09485421FDF763F8084B054A0648AB
:104EB0005621FDF75DF8C046581100200000105043
:104EC0004C8800106C8900107C880010D888001075
:104ED000F8B505000E001400FFF7A2FF7F232B405A
:104EE000EF0985707A427A4142700022C27086834F
:104EF0008477012F0DD0DA0012498C46624482601B
:104F0000826800211160002B09D143600E4BC36001
:104F1000F8BDDA000D498C4662448260F0E7012F4B
:104F200009D0013BDB000A4A9446634443602100F8
:104F3000FFF796FFECE7013BDB00064A944663442B
:104F40004360F4E7840010500001105080001050BE
:104F50000C0010500800105010B5002308E0013379
:104F6000DA00002108481150844662445160DBB2E7
:104F70000E2BF4D90548F02292000021FFF708FB20
:104F8000034B044A1A6010BD00001050580D002059
:104F90005811002080011050F0B5CE46474680B52C
:104FA00083B01D4B9F6D0024012603E0B7437600BC
:104FB0000134E4B2002F29D01F2C27D83E42F6D06E
:104FC000164B9E65630899460123634001221A40EF
:104FD00090464B465D0045446D01114BED1828008D
:104FE00000F0A8FA0028E1D00D4A4B465B0043448C
:104FF0005B01D3189A8A997801230093002300203B
:1050000000F0BEFD280000F005FACFE703B0C0BCF9
:10501000B946B046F0BDC0460000115000301150F6
:10502000180D002070B52B4A9823D45880235B02BA
:1050300025001D401C420AD1E30616D4E30419D40E
:10504000630429D4230433D4A5423ED170BDFFF7B5
:10505000F3FE01222049002000F078FD1F4B802242
:1050600092021A6580256D02E6E710231D43FFF7C3
:1050700093FFE3E780235B011D43164B00221A6078
:10508000FFF76AFF01220021002000F04AFD134BC8
:10509000802212031A65D3E78023DB011D4301221E
:1050A0000421002000F02AFD0C4B10221A65C9E7EC
:1050B00080231B021D4301220521002000F01EFD5C
:1050C000064B802212011A65BEE7290061400448A0
:1050D000FCF7E6FF000011500000105000301150A6
:1050E0000C89001070B50C001500FFF799FE2A001E
:1050F000210000F0FBF970BD10B5002804D101219A
:105100000520FBF7F1FB10BD034B044AB92104480D
:105110004900FCF72DFFC046208900105C89001073
:105120007C88001010B5002805D1002200218020C5
:10513000FFF7D8FF10BD034B034ABF2103484900C6
:10514000FCF716FF208900104C8900107C880010A5
:10515000024B80225202DA647047C0460020115090
:1051600070B5041E25D100F02FF9154D0C23AB6747
:1051700014490520FBF7E2FB134840220021FFF70A
:1051800007FA002240210020FFF7A2FE0022402162
:105190008020FFF79DFEFFF7DFFE01232B648023B5
:1051A0009B05EB649023094AEA502000FFF7D0FFEB
:1051B00070BD074B074A4E210748FF31FCF7D8FE68
:1051C0000000115025500010180D002010D00100D3
:1051D00020890010808900107C8800100B785B0605
:1051E00002D14B78052B00D070478A78014B1A60AA
:1051F000FAE7C0460000115010B50A0000280DD192
:1052000088780C794B790721194009022143D2781B
:105210009207920FFFF75CFE012010BD034B044A7A
:10522000D62104484900FCF7A3FEC046208900109F
:105230003C8900107C88001010B5FFF78DFE10BD72
:1052400010B50400080011001A00002C03D1FFF76C
:1052500049FF012010BD034B034ABC210348FF3125
:10526000FCF786FE208900102C8900107C88001035
:1052700010B508004B0605D1CB09012B0AD002223C
:10528000054B9A66FFF7CCFD80221201002100F049
:10529000C7F810BD0122F3E70020115010B5080037
:1052A0004B0600D110BDFFF7BBFD0023C3700022E9
:1052B000014900F0B5F8F5E7FFF7FFFFF8B5040086
:1052C0000F00438A828B1E1C934200D9161CB6B273
:1052D0009B1B63828022D2003243E378002B13D0E1
:1052E0008025AD01154301225340E3706378002B04
:1052F0000CD0638A002B02D18023DB011D43002FD9
:1053000000D02D042800F8BD0025EBE7E068BB01C4
:10531000C018A1693200FFF741F9A3699B19A36185
:1053200080231B021D43E4E770B5040083681B68FB
:10533000002900D01B0C9D05AD0D6278002A11D10B
:105340001B0409D4A38A5B19A382A38BAB4201D9A6
:1053500000236382280070BD0D4B0E4A0E48D721F2
:10536000FCF706FE1B040DD5A069E36889015918F6
:105370002A00FFF713F9A38A5B19A382A3695B19BB
:10538000A361E2E7054B034A0348DE21FCF7F0FD89
:105390008C890010AC8A0010AC890010088A0010BB
:1053A00010B5040083681B680021FFF7BDFF636828
:1053B0001B685B0002D5A38B834200D010BD012186
:1053C0002000FFF7B1FFF9E710B580235B040C4A1A
:1053D00013600C4A13600C4B9A6880235B04934360
:1053E000F9D10A4C9C2200212000FFF7D1F880223D
:1053F000520100210648FFF7CBF80923636710BD6F
:1054000000E0004000F0004000C0004000001150EB
:10541000000010500023037443828382836170472D
:1054200010B5002902D083681B681940002A0FD0EC
:10543000114352050CD5826813685B050BD40B4BE6
:105440000B401360FFE7FFE7FFE7FFE7FFE7FFE73A
:105450008368196010BD83787F211940DB09044AF5
:105460009B0004489A58FCF71BFEC046FFFBFFFF59
:1054700078040020288A001070B5040043681E6874
:105480000021FFF71BFF80256D010543144B1B6CAA
:105490009B0704D4A378DB0914D1013300E0002377
:1054A000628A002A01D0002B0ED00E4B1E408023B2
:1054B0009B053343626813602A0000212000FFF738
:1054C000AFFF70BD0023EBE701212000FFF7F6FEE0
:1054D0000543054A3240A023DB051343EAE7C046F3
:1054E00000001150FFFFFFAFFFFFFFDF70B50400AA
:1054F0000D001600037C002B09D166820023A382D5
:1055000001332374A5612000FFF7B6FF70BD8378D7
:105510007F211940DB09054A9B009A580448FFF790
:1055200081F92000FFF776FFE7E7C0467804002006
:10553000488A001070B50400057C002D06D0FFF7E6
:105540002FFF638A002B08D1280070BD81787F234C
:105550001940044A0448FCF7A3FD2000FFF78CFF24
:105560000025F1E778040020808A001070B505005E
:1055700000240EE062001219D200184B1B689B1821
:1055800002E0230010E000235B6828009847013404
:10559000E4B2134B1B78A3420ED3124A002AF0D078
:1055A000A342E7D8E31ADBB2002BECD15A00D318A0
:1055B000DB000D4A9B18E7E70C4C5322002120002A
:1055C000FEF7E6FFE01C1022FF21FEF7E1FF2000BE
:1055D00013302022FF21FEF7DBFF70BDD005002035
:1055E000CA130020414A0010F48B00100809002063
:1055F00010B50400C269EFF3108072B61368002B77
:10560000FCD0BFF35F8F2062200001F097FEE269BB
:10561000236ABFF35F8F0021116083F3108810BDF0
:1056200010B5FFF7A3FF00F0ADFF10BD70B505008A
:105630000C001600C86800F0AFFFE36832000021DC
:105640002800984770BD0000F0B5DE4657464E462C
:105650004546E0B583B081460139C8B2FFF7A6FBE5
:10566000002803D043789846022B0CD05549564861
:10567000564AFFF7D7F8002003B0F0BCBB46B2464D
:10568000A946A046F0BDC5796C110122504B1440CB
:10569000240119781026B14321431970AD112A4015
:1056A0005201C9B22024A1430A431A7007000937E6
:1056B0008278C3781B02134382469A4462E0FB78E7
:1056C0009B463B78FF1864E03E493F48414AFFF75C
:1056D000A9F80020D0E763001B19DB003E4A1568DB
:1056E000ED1802E0230017E00025AB683200390016
:1056F000484698470190082801D9864214D20134BF
:10570000E4B2364B1B78A34238D3354A002AE9D09D
:10571000A342E0D8E31ADBB2002BE5D15D00ED181F
:10572000ED00304BED18E0E75B46012B10D0002276
:1057300093451AD9BB789B18DBB22549C918C9789B
:10574000FF290BD12249CB18DC700132D2B2EFE72E
:10575000AA68254B9A42EAD1C346E8E719491A4894
:10576000224AFFF75FF8002086E721482300019DC9
:105770002A00390001F02AFBAC466744174B1B781E
:10578000A3420ED3574514D27B780B2B97D001231D
:105790009B467B78042B97D15346DE1BB6B2002480
:1057A000AFE7F322074908489200FFF73BF80020D3
:1057B00062E7104B002B03D000E000BF01205BE745
:1057C000012059E7BC8B0010BC8A00107B0300004D
:1057D0000809002096030000D0050020CA1300200D
:1057E000414A0010F48B001089690010BD030000CD
:1057F0001B0900200000000070B505000C00CB78EC
:1058000088780F2B54D89A002F498A589746FFF76B
:10581000C9FA020012232100280000F067FE48E0C8
:105820002A4B002B46D000E000BF02008178C378ED
:105830001B020B432100280000F058FE39E0022B28
:1058400010D0234B002B37D000E000BF0200002A0D
:105850000CD09178D3781B020B432100280000F074
:1058600045FE26E0FFF7A2FA0200F0E719491A48C0
:105870001A4AFEF7D7FF00201BE02379617909025D
:105880001943FFF797FA021E18D003782100280069
:1058900000F02CFE0DE0124B002B11D000E000BFF9
:1058A000021E0FD003782100280000F01FFE00E048
:1058B000002070BD0020FCE70020FAE70020F8E798
:1058C0000020F6E70020F4E7D48A00100000000072
:1058D00000000000A48B0010BC8A0010140400001B
:1058E0000000000070B50400C269EFF3108072B6CA
:1058F0001368002BFCD0BFF35F8F2062200001F003
:1059000043FD0500E169226ABFF35F8F0020086054
:1059100082F31088002D01D0280070BD0249034891
:10592000A822FEF77FFFF7E7948B0010BC8A0010D7
:10593000024B5878431E9841C0B2704708090020B6
:10594000024B18784007C00F7047C0460809002076
:10595000014B18787047C046CB13002070B5050086
:10596000274B1878002800D070BD2648532200210C
:10597000FEF70EFE244C2000FCF742FA234B1C607D
:10598000234C2000FCF762FA1C3C200001F036FD9D
:10599000204B1C60204B002B04D02048FFF750F810
:1059A0001F4B186000240DE062001219D2001C4B3E
:1059B0001B689B1802E023000FE000231B68984738
:1059C0000134E4B2154B1B78A3420ED3124A002ACD
:1059D000F1D0A342E8D8E31ADBB2002BEDD15A0094
:1059E000D318DB000F4A9B18E8E72800FFF7B8FB45
:1059F0002800FFF781FB024B01221A700120B3E758
:105A0000CB13002008090020C00800205C090020FA
:105A10009C04002060090020414A0010CA130020A5
:105A2000D0050020F48B001030B585B004000D00C7
:105A30004378042B47D01DD8022B2DD0032B52D1F5
:105A40002C4B1B785B073CD52A4A137804218B43E7
:105A500013700C22002101A8FEF79AFD23786A46F4
:105A6000137105235371244B18682A0001A9FFF70D
:105A700039FF26E0052B36D11E4B1B78DB0720D5DE
:105A80001C4A137804218B4313701B4B18682A009F
:105A90002100FFF727FF14E0164B1A7801218A43F3
:105AA0001A701A7801318A431A7000225A701A78D3
:105AB00002318A431A70104B18682A002100FFF740
:105AC00011FF05B030BD0B4B1B78DB07F9D5094A38
:105AD000137804210B431370074B18682A00210028
